:020000040800F2
:1000000000000120A5090008F1080008F708000811
:10001000FD080008030900080909000800000000A5
:100020000000000000000000000000000F090008B0
:100030001D090008000000002B090008390900080C
:10004000F5090008F5090008F5090008F509000898
:10005000F5090008F5090008F5090008F509000888
:10006000F5090008F5090008F5090008F509000878
:10007000F5090008F5090008F5090008F509000868
:10008000F5090008F5090008F5090008000000005E
:10009000000000000000000000000000F50900085A
:1000A000F5090008F5090008F5090008F509000838
:1000B000F5090008F5090008F509000845090008D8
:1000C00059090008F5090008F5090008F5090008B4
:1000D000F5090008F5090008F5090008000000000E
:1000E000F5090008F5090008F509000800000000FE
:1000F000000000000000000000000000F5090008FA
:1001000000000000F5090008F5090008F5090008DD
:1001100000000000000000000000000000000000DF
:10012000F5090008F5090008F5090008F5090008B7
:10013000F5090008000000000000000000000000B9
:100140000000000000000000000000006D09000831
:10015000F5090008F5090008F5090008F509000887
:10016000F5090008F5090008000000000000000083
:10017000000000000000000000000000000000007F
:1001800000000000F5090008000000000000000069
:04019000F509000865
:1001940010B5054C237833B9044B13B10448AFF3BD
:1001A40000800123237010BDFC000020000000002B
:1001B400A48C000808B5034B1BB103490348AFF3F3
:1001C400008008BD0000000000010020A48C00088D
:1001D40053B94AB9002908BF00281CBF4FF0FF31AA
:1001E4004FF0FF3000F074B9ADF1080C6DE904CEA6
:1001F40000F006F8DDF804E0DDE9022304B07047FE
:100204002DE9F047089D04468E46002B4DD18A42C5
:10021400944669D9B2FA82F252B101FA02F3C2F1F8
:10022400200120FA01F10CFA02FC41EA030E944089
:100234004FEA1C48210CBEFBF8F61FFA8CF708FBAA
:1002440016E341EA034306FB07F199420AD91CEB82
:10025400030306F1FF3080F01F81994240F21C81B4
:10026400023E63445B1AA4B2B3FBF8F008FB1033FC
:1002740044EA034400FB07F7A7420AD91CEB040431
:1002840000F1FF3380F00A81A74240F20781644401
:10029400023840EA0640E41B00261DB1D440002386
:1002A400C5E900433146BDE8F0878B4209D9002DEA
:1002B40000F0EF800026C5E9000130463146BDE874
:1002C400F087B3FA83F6002E4AD18B4202D38242DE
:1002D40000F2F980841A61EB030301209E46002D8D
:1002E400E0D0C5E9004EDDE702B9FFDEB2FA82F2E2
:1002F400002A40F09280A1EB0C014FEA1C471FFA40
:100304008CFE0126200CB1FBF7F307FB131140EA26
:1003140001410EFB03F0884208D91CEB010103F1F3
:10032400FF3802D2884200F2CB804346091AA4B2B5
:10033400B1FBF7F007FB101144EA01440EFB00FE89
:10034400A64508D91CEB040400F1FF3102D2A645EE
:1003540000F2BB800846A4EB0E0440EA03409CE78D
:10036400C6F12007B34022FA07FC4CEA030C20FA3A
:1003740007F401FA06F31C43F9404FEA1C4900FA5A
:1003840006F3B1FBF9F8200C1FFA8CFE09FB1811D7
:1003940040EA014108FB0EF0884202FA06F20BD94A
:1003A4001CEB010108F1FF3A80F08880884240F29A
:1003B4008580A8F102086144091AA4B2B1FBF9F0DE
:1003C40009FB101144EA014100FB0EFE8E4508D9D9
:1003D4001CEB010100F1FF346CD28E456AD902385E
:1003E400614440EA0840A0FB0294A1EB0E01A14243
:1003F400C846A64656D353D05DB1B3EB080261EBB1
:100404000E0101FA07F722FA06F3F1401F43C5E98A
:10041400007100263146BDE8F087C2F12003D840C0
:100424000CFA02FC21FA03F3914001434FEA1C4702
:100434001FFA8CFEB3FBF7F007FB10360B0C43EAF4
:10044400064300FB0EF69E4204FA02F408D91CEBA4
:10045400030300F1FF382FD29E422DD902386344A2
:100464009B1B89B2B3FBF7F607FB163341EA034142
:1004740006FB0EF38B4208D91CEB010106F1FF3891
:1004840016D28B4214D9023E6144C91A46EA004688
:1004940038E72E46284605E70646E3E61846F8E61A
:1004A4004B45A9D2B9EB020864EB0C0E0138A3E763
:1004B4004646EAE7204694E74046D1E7D0467BE744
:1004C400023B614432E7304609E76444023842E7BC
:1004D400704700BF80B500AF00F08CFA00F014F84C
:1004E40000F0DAF800F07CF800F0A8F807F0C2FE9B
:1004F4004FF40051034800F0F2FD4FF47A7000F01D
:10050400EBFAF5E70008024080B594B000AF07F1BC
:10051400200330220021184608F0BAFB07F10C032F
:1005240000221A605A609A60DA601A610023BB6084
:10053400294B1B6C284A43F080531364264B1B6CD5
:1005440003F08053BB60BB6800237B60234B1B68B4
:1005540023F44043214A43F4004313601F4B1B68B8
:1005640003F440437B607B6801233B624FF4803398
:100574007B620223BB634FF48003FB6319233B6458
:100584004FF4A8737B640423BB640723FB6407F163
:100594002003184603F05AFE0346002B01D000F056
:1005A400DBF80F23FB6002233B6100237B614FF4E4
:1005B4008053BB610023FB6107F10C030221184641
:1005C40004F0BCF80346002B01D000F0C5F800BFCE
:1005D4005037BD4680BD00BF003802400070004067
:1005E40080B500AF124B134A1A60114B124A5A607D
:1005F4000F4B00229A600E4B0022DA600C4B4FF432
:1006040080421A610A4B00225A61094B00229A6106
:10061400074B0022DA61064B00221A62044800F0FC
:1006240079FD0346002B01D000F096F800BF80BD91
:100634001801002000540040A086010080B500AFDE
:10064400124B134A1A60114B124A5A600F4B002284
:100654009A600E4B0022DA600C4B4FF480421A6110
:100664000A4B00225A61094B00229A61074B00226F
:10067400DA61064B00221A62044800F04BFD03467F
:10068400002B01D000F068F800BF80BD6C01002091
:1006940000580040A086010080B58AB000AF07F181
:1006A400140300221A605A609A60DA601A61002307
:1006B4003B61274B1B6B264A43F004031363244B13
:1006C4001B6B03F004033B613B690023FB60204B7D
:1006D4001B6B1F4A43F0800313631D4B1B6B03F01A
:1006E4008003FB60FB680023BB60194B1B6B184A3B
:1006F40043F002031363164B1B6B03F00203BB604E
:10070400BB6800237B60124B1B6B114A43F001034F
:1007140013630F4B1B6B03F001037B607B680022A8
:100724004FF400510B4800F0C1FC4FF400537B61BF
:100734000123BB610023FB6100233B6207F1140327
:100744001946044800F02EFB00BF2837BD4680BD83
:10075400003802400008024080B400AF72B600BF07
:10076400FEE7000080B483B000AF00237B60104B31
:100774005B6C0F4A43F4804353640D4B5B6C03F48E
:1007840080437B607B6800233B60094B1B6C084AF9
:1007940043F080531364064B1B6C03F080533B609F
:1007A4003B6800BF0C37BD465DF8047B704700BF53
:1007B4000038024080B58CB000AF786007F11C03AC
:1007C40000221A605A609A60DA601A617B681B68BA
:1007D400424A93423CD10023BB61414B1B6B404ACC
:1007E40043F0020313633E4B1B6B03F00203BB6134
:1007F400BB69C023FB6112233B6200237B6203239A
:10080400BB620423FB6207F11C031946354800F060
:10081400C9FA00237B61324B1B6C314A43F4001349
:1008240013642F4B1B6C03F400137B617B69002260
:1008340000211F2000F04FFA1F2000F068FA002268
:100844000021202000F047FA202000F060FA41E067
:100854007B681B68244A93423CD100233B61204BB4
:100864001B6B1F4A43F0020313631D4B1B6B03F006
:1008740002033B613B694FF48063FB6112233B62DB
:1008840000237B620323BB620423FB6207F11C0386
:100894001946144800F086FA0823FB6112233B62D0
:1008A40000237B620323BB620923FB6207F11C0361
:1008B40019460C4800F076FA0023FB60084B1B6CC9
:1008C400074A43F480031364054B1B6C03F4800351
:1008D400FB60FB6800BF3037BD4680BD005400405C
:1008E40000380240000402400058004080B400AFC9
:1008F400FEE780B400AFFEE780B400AFFEE780B44B
:1009040000AFFEE780B400AFFEE780B400AF00BFE5
:10091400BD465DF8047B704780B400AF00BFBD46A0
:100924005DF8047B704780B400AF00BFBD465DF83E
:10093400047B704780B500AF00F0AEF800BF80BD07
:1009440080B500AF024800F029FD00BF80BD00BFA4
:100954001801002080B500AF024800F090FE00BFEF
:1009640080BD00BF1801002080B500AF024802F02E
:1009740040FB00BF80BD00BFA40E002080B400AFC8
:10098400064BD3F88830054A43F47003C2F8883024
:1009940000BFBD465DF8047B704700BF00ED00E07A
:1009A400DFF834D00D480E490E4A002302E0D45833
:1009B400C4500433C4188C42F9D30B4A0B4C0023A3
:1009C40001E013600432A242FBD3FFF7D7FF08F023
:1009D4003BF9FFF77FFD7047000001200000002075
:1009E400FC000020288D0008FC000020D015002009
:1009F400FEE7000080B500AF0E4B1B680D4A43F4C0
:100A0400007313600B4B1B680A4A43F48063136042
:100A1400084B1B68074A43F480731360032000F0FB
:100A24004FF90F2000F008F8FFF79CFE002318464A
:100A340080BD00BF003C024080B582B000AF78604A
:100A4400124B1A68124B1B7819464FF47A73B3FB96
:100A5400F1F3B2FBF3F3184600F067F90346002BF9
:100A640001D001230EE07B680F2B0AD8002279689D
:100A74004FF0FF3000F02FF9064A7B681360002323
:100A840000E0012318460837BD4680BD0000002061
:100A9400080000200400002080B400AF064B1B783F
:100AA4001A46064B1B681344044A136000BFBD4634
:100AB4005DF8047B704700BF08000020C0010020DF
:100AC40080B400AF034B1B681846BD465DF8047B39
:100AD400704700BFC001002080B584B000AF7860CB
:100AE400FFF7EEFFB8607B68FB60FB68B3F1FF3F84
:100AF40005D00A4B1B781A46FB681344FB6000BF01
:100B0400FFF7DEFF0246BB68D31AFA689A42F7D8A9
:100B140000BF00BF1037BD4680BD00BF08000020E5
:100B240080B485B000AF78607B6803F00703FB6096
:100B34000C4BDB68BB60BA684FF6FF031340BB6025
:100B4400FB681A02BB68134343F0BF6343F40033EA
:100B5400BB60044ABB68D36000BF1437BD465DF870
:100B6400047B704700ED00E080B400AF044BDB6809
:100B74001B0A03F007031846BD465DF8047B704763
:100B840000ED00E080B483B000AF0346FB7197F939
:100B94000730002B0BDBFB7903F01F02074997F9A1
:100BA40007305B09012000FA02F241F8232000BF5C
:100BB4000C37BD465DF8047B704700BF00E100E0E0
:100BC40080B483B000AF03463960FB7197F90730F6
:100BD400002B0ADB3B68DAB20C4997F907301201A3
:100BE400D2B20B4483F800230AE03B68DAB2084926
:100BF400FB7903F00F03043B1201D2B20B441A76C3
:100C040000BF0C37BD465DF8047B704700E100E08F
:100C140000ED00E080B489B000AFF860B9607A609C
:100C2400FB6803F00703FB61FB69C3F10703042BB3
:100C340028BF0423BB61FB690433062B02D9FB697B
:100C4400033B00E000237B614FF0FF32BB6902FAF3
:100C540003F3DA43BB681A407B699A404FF0FF31D3
:100C64007B6901FA03F3D9437B680B4013431846AD
:100C74002437BD465DF8047B7047000080B582B020
:100C840000AF78607B68013BB3F1807F01D301231F
:100C94000FE00A4A7B68013B53600F214FF0FF309D
:100CA400FFF78EFF054B00229A60044B07221A605F
:100CB400002318460837BD4680BD00BF10E000E0A1
:100CC40080B582B000AF78607868FFF729FF00BF75
:100CD4000837BD4680BD80B586B000AF0346B96015
:100CE4007A60FB7300237B61FFF73EFF78617A68CB
:100CF400B9687869FFF78EFF024697F90F301146FD
:100D04001846FFF75DFF00BF1837BD4680BD80B5AC
:100D140082B000AF0346FB7197F907301846FFF71E
:100D240031FF00BF0837BD4680BD80B582B000AF3B
:100D340078607868FFF7A2FF034618460837BD4677
:100D440080BD80B483B000AF78607B6893F83530A1
:100D5400DBB2022B04D07B6880225A6501230CE0AD
:100D64007B68052283F835207B681B681A687B68DA
:100D74001B6822F001021A60002318460C37BD4696
:100D84005DF8047B704780B483B000AF78607B6803
:100D940093F83530DBB218460C37BD465DF8047B5A
:100DA4007047000080B489B000AF786039600023D8
:100DB4007B6100233B610023BB610023FB6159E19C
:100DC4000122FB6902FA03F37B613B681B687A69C1
:100DD40013403B613A697B699A4240F048813B6821
:100DE4005B6803F00303012B05D03B685B6803F0E9
:100DF4000303022B30D17B689B68BB61FB695B00FA
:100E0400032202FA03F3DB43BA691340BB613B6874
:100E1400DA68FB695B0002FA03F3BA691343BB6146
:100E24007B68BA699A607B685B68BB610122FB6975
:100E340002FA03F3DB43BA691340BB613B685B68A6
:100E44001B0903F00102FB6902FA03F3BA691343B5
:100E5400BB617B68BA695A603B685B6803F0030353
:100E6400032B17D07B68DB68BB61FB695B00032243
:100E740002FA03F3DB43BA691340BB613B689A6827
:100E8400FB695B0002FA03F3BA691343BB617B6835
:100E9400BA69DA603B685B6803F00303022B23D171
:100EA400FB69DA087B68083253F82230BB61FB69BE
:100EB40003F007039B000F2202FA03F3DB43BA6932
:100EC4001340BB613B681A69FB6903F007039B008D
:100ED40002FA03F3BA691343BB61FB69DA087B685E
:100EE4000832B96943F822107B681B68BB61FB694F
:100EF4005B00032202FA03F3DB43BA691340BB61CC
:100F04003B685B6803F00302FB695B0002FA03F3CE
:100F1400BA691343BB617B68BA691A603B685B6852
:100F240003F44033002B00F0A2800023FB60574BF6
:100F34005B6C564A43F480435364544B5B6C03F438
:100F44008043FB60FB68524AFB699B08023352F8FA
:100F54002330BB61FB6903F003039B000F2202FAF9
:100F640003F3DB43BA691340BB617B68494A93428C
:100F740019D07B68484A934213D07B68474A93420E
:100F84000DD07B68464A934207D07B68454A93421A
:100F940001D1042308E0072306E0032304E002232D
:100FA40002E0012300E00023FA6902F00302920048
:100FB4009340BA691343BB613549FB699B0802330B
:100FC400BA6941F82320384B9B68BB613B69DB431A
:100FD400BA691340BB613B685B6803F48013002B60
:100FE40003D0BA693B691343BB612F4ABB69936061
:100FF4002D4BDB68BB613B69DB43BA691340BB61C2
:101004003B685B6803F40013002B03D0BA693B69A7
:101014001343BB61244ABB69D360234B5B68BB6148
:101024003B69DB43BA691340BB613B685B6803F40B
:101034000033002B03D0BA693B691343BB611A4ADE
:10104400BB695360184B1B68BB613B69DB43BA69DE
:101054001340BB613B685B6803F48033002B03D00F
:10106400BA693B691343BB610F4ABB691360FB69EF
:101074000133FB61FB690F2B7FF6A2AE00BF00BFFB
:101084002437BD465DF8047B704700BF003802403A
:101094000038014000000240000402400008024001
:1010A400000C024000100240003C014080B483B0B8
:1010B40000AF78600B467B8013467B707B78002BF7
:1010C40003D07A887B689A6103E07B881A047B6882
:1010D4009A6100BF0C37BD465DF8047B704780B44D
:1010E40085B000AF78600B467B807B685B69FB60F2
:1010F4007A88FB6813401A04FB68D9437B880B4049
:101104001A437B689A6100BF1437BD465DF8047BBF
:101114007047000080B584B000AF78607B68002B16
:1011240001D101232BE17B6893F83D30DBB2002B26
:1011340006D17B68002283F83C207868FFF73AFBED
:101144007B68242283F83D207B681B681A687B68CF
:101154001B6822F001021A607B681B681A687B68AE
:101164001B6842F400421A607B681B681A687B683B
:101174001B6822F400421A6003F098FCF8607B6854
:101184005B68814A934207D8FB68804A934294BFC4
:1011940001230023DBB206E0FB687D4A934294BF3F
:1011A40001230023DBB2002B01D00123E7E0FB681D
:1011B400784AA2FB03239B0CBB607B681B685B68BB
:1011C40023F03F017B681B68BA680A435A607B6856
:1011D4001B681B6A23F03F017B685B686A4A934281
:1011E40002D8BB68013309E0BB684FF4967202FB76
:1011F40003F3694AA2FB03239B0901337A6812684B
:101204000B4313627B681B68DB6923F44F4222F0B3
:10121400FF027B685B685C498B4219D8FB68591EE6
:101224007B685B685B00B1FBF3F3591C40F6FC730D
:101234000B40002B0AD0FB68591E7B685B685B007F
:10124400B1FBF3F30133C3F30B0351E004234FE089
:101254007B689B68002B11D1FB68581E7B6859681A
:101264000B465B000B44B0FBF3F30133C3F30B03F6
:10127400002B0CBF01230023DBB212E0FB68581ED5
:101284007B6859680B469B000B4499000B44B0FBE8
:10129400F3F30133C3F30B03002B0CBF012300232F
:1012A400DBB2002B01D0012322E07B689B68002B7A
:1012B4000ED1FB68581E7B6859680B465B000B44D3
:1012C400B0FBF3F30133C3F30B0343F400430FE028
:1012D400FB68581E7B6859680B469B000B449900B9
:1012E4000B44B0FBF3F30133C3F30B0343F4404368
:1012F400796809681343CB617B681B681B6823F01A
:10130400C0017B68DA697B681B6A1A437B681B68C7
:101314000A431A607B681B689B6823F4034323F029
:10132400FF037A6811697A68D26811437A6812688F
:101334000B4393607B681B68DB6823F0FF017B68C9
:101344005A697B689B691A437B681B680A43DA60A5
:101354007B681B681A687B681B6842F001021A608C
:101364007B6800221A647B68202283F83D207B6816
:1013740000221A637B68002283F83E20002318466B
:101384001037BD4680BD00BFA08601007F841E00CB
:10139400FF083D0083DE1B43D34D621080B588B047
:1013A40000AF78600023BB617B681B685B687B616E
:1013B4007B68DB6A3B617B6893F83E30FB737B6838
:1013C40093F83D30BB73FB7B102B03D0FB7B402B8E
:1013D40040F0C1807B681B689B69BB617B681B68AC
:1013E4005B69FB61FB6903F00103002B0DD13B69D1
:1013F400B3F52A0F03D03B69B3F12A4F01D101237E
:1014040000E00023012B00F03281FB6903F00103AB
:10141400002B0CD07B695B0A03F00103002B06D080
:10142400786801F07BFC786800F083FD92E0FB694A
:10143400DB0803F00103002B09D07B695B0A03F08E
:101444000103002B03D0786800F0F9FD82E0FB690A
:101454005B0803F00103002B09D07B695B0A03F0EE
:101464000103002B03D0786800F013FE72E0BB691F
:101474009B0803F00103002B3BD07B681B685B686F
:1014840003F40063B3F5006F00F0F380FB69DB093C
:1014940003F00103002B0FD07B699B0A03F00103C7
:1014A400002B09D0FB699B0803F00103002B03D137
:1014B400786800F0F3F94DE0FB699B0803F0010341
:1014C400002B00F0D6807B695B0A03F00103002B3C
:1014D40000F0CF80BB7B212B03D1786800F07AFA2F
:1014E400C7E0FB7B402B40F0C480786800F0E8FA4A
:1014F400BFE07B681B685B6803F40063B3F5006FAF
:1015040000F0B780FB699B0903F00103002B0FD0A7
:101514007B699B0A03F00103002B09D0FB699B083C
:1015240003F00103002B03D1786800F05DFB11E0A8
:10153400FB699B0803F00103002B00F09A807B6990
:101544005B0A03F00103002B00F09380786800F03D
:1015540006FC8EE08DE07B681B6C002B04D07B685E
:101564001B685B69FB6107E07B681B689B69BB6167
:101574007B681B685B69FB61FB695B0803F0010323
:10158400002B12D07B695B0A03F00103002B0CD003
:101594007B681B6C002B03D07B681B689B69BB6159
:1015A400B969786800F0C4FF66E0FB691B0903F0C1
:1015B4000103002B09D07B695B0A03F00103002BB4
:1015C40003D0786800F0FEFF56E0BB7B212B02D0ED
:1015D400BB7B292B25D1FB69DB0903F00103002B1D
:1015E4000FD07B699B0A03F00103002B09D0FB6930
:1015F4009B0803F00103002B03D1786800F0DAFEA6
:1016040039E0FB699B0803F00103002B33D07B69AD
:101614005B0A03F00103002B2DD0786800F007FF6C
:1016240029E0FB699B0903F00103002B0FD07B69C0
:101634009B0A03F00103002B09D0FB699B0803F00C
:101644000103002B03D1786800F012FF14E0FB695A
:101654009B0803F00103002B0ED07B695B0A03F0A7
:101664000103002B08D0786800F040FF04E000BFBD
:1016740002E000BF00E000BF2037BD4680BD80B55A
:101684008AB000AF78607B681B685B693B627B68EB
:101694001B685B68FB6100237B627B6893F83E30C8
:1016A400FB763B6A1B0A03F00103002B0ED0FB6997
:1016B4001B0A03F00103002B08D07B6A43F00103EB
:1016C4007B627B681B686FF480725A613B6A5B0AB9
:1016D40003F00103002B0ED0FB691B0A03F0010386
:1016E400002B08D07B6A43F002037B627B681B6893
:1016F4006FF400725A613B6A9B0A03F00103002BEA
:101704003FD0FB691B0A03F00103002B39D0FB7E99
:10171400BB767B685B8D9BB27B617B6893F83D30C5
:10172400FB747B681B6BFB60BB7E202B12D17B6937
:10173400002B0FD1FB7C212B08D0FB7C292B05D05F
:10174400FB7C282B06D1FB68212B03D1786801F0A0
:1017540069F816E07B681B686FF480625A617B6AE3
:1017640043F004037B62FB7E102B02D0FB7E402BF4
:1017740007D17B681B681A687B681B6842F4007297
:101784001A603B6ADB0A03F00103002B0ED0FB69ED
:101794001B0A03F00103002B08D07B6A43F0080303
:1017A4007B627B681B686FF400625A617B6A002B62
:1017B40008D07B681A6C7B6A1A437B681A64786861
:1017C40001F0A0F800BF2837BD4680BD80B483B0C7
:1017D40000AF786000BF0C37BD465DF8047B7047EE
:1017E40080B483B000AF786000BF0C37BD465DF8AD
:1017F400047B704780B483B000AF786000BF0C37BF
:10180400BD465DF8047B704780B483B000AF786058
:1018140000BF0C37BD465DF8047B704780B483B0CD
:1018240000AF78600B46FB7013463B8000BF0C375B
:10183400BD465DF8047B704780B483B000AF786028
:1018440000BF0C37BD465DF8047B704780B483B09D
:1018540000AF786000BF0C37BD465DF8047B70476D
:1018640080B483B000AF786000BF0C37BD465DF82C
:10187400047B704780B483B000AF786000BF0C373E
:10188400BD465DF8047B704780B483B000AF7860D8
:1018940000BF0C37BD465DF8047B704780B584B04B
:1018A40000AF78607B6893F83D30FB737B6893F8F6
:1018B4003E30BB737B68DB6ABB607B681B8D002B8F
:1018C40050D1FB7B212B4DD1BB68082B1DD0BB68AD
:1018D400202B1AD0BB6813F5803F16D07B681B6899
:1018E4005A687B681B6822F4E0625A607B681122A4
:1018F4001A637B68002283F83E207B68202283F8E9
:101904003D207868FFF762FF60E07B681B685A68D7
:101914007B681B6822F4E0625A607B681B681A6863
:101924007B681B6842F400721A607B6800221A63A9
:101934007B68202283F83D207B6893F83E30DBB23D
:10194400402B07D17B68002283F83E207868FFF79C
:101954007DFF3BE07B68002283F83E207868FFF738
:1019640035FF33E0FB7B212B05D0BB7B402B2DD1F6
:10197400FB7B222B2AD17B685B8D9BB2002B08D189
:101984007B681B685A687B681B6822F480625A6013
:101994001CE07B6893F83E30DBB2402B03D17868BF
:1019A40000F08EF812E07B685B6A1A787B681B682B
:1019B4001A617B685B6A5A1C7B685A627B685B8D20
:1019C4009BB2013B9AB27B685A85FFE700BF103790
:1019D400BD4680BD80B584B000AF78607B68DB6AAB
:1019E400FB607B6893F83D30DBB2212B64D17B68CC
:1019F4005B8D9BB2002B12D07B685B6A1A787B6884
:101A04001B681A617B685B6A5A1C7B685A627B6834
:101A14005B8D9BB2013B9AB27B685A854CE0FB68B4
:101A2400082B1DD0FB68202B1AD0FB6813F5803FD0
:101A340016D07B681B685A687B681B6822F4E062D6
:101A44005A607B6811221A637B68002283F83E2067
:101A54007B68202283F83D207868FFF7B7FE2BE0EF
:101A64007B681B685A687B681B6822F4E0625A60D2
:101A74007B681B681A687B681B6842F400721A60F2
:101A84007B6800221A637B68202283F83D207B68F0
:101A940093F83E30DBB2402B07D17B68002283F8F9
:101AA4003E207868FFF7D2FE06E07B68002283F8C8
:101AB4003E207868FFF78AFE00BF1037BD4680BD20
:101AC40080B584B000AF78607B6893F83D30FB73D9
:101AD4007B681B6D002B1DD17B68DB6C012B0BD14C
:101AE4007B689B6CDAB27B681B681A617B681B6D30
:101AF4009A1C7B681A6573E07B689B6C9BB21B1213
:101B0400DAB27B681B681A617B681B6D5A1C7B68A0
:101B14001A6565E07B681B6D012B0BD17B689B6CA0
:101B2400DAB27B681B681A617B681B6D5A1C7B6880
:101B34001A6555E07B681B6D022B51D1FB7B222B70
:101B44000DD17B681B681A687B681B6842F480723D
:101B54001A607B681B6D5A1C7B681A6540E07B68C1
:101B64005B8D9BB2002B15D0FB7B212B12D17B68A4
:101B74005B6A1A787B681B681A617B685B6A5A1C0B
:101B84007B685A627B685B8D9BB2013B9AB27B682F
:101B94005A8525E07B685B8D9BB2002B20D1FB7BB3
:101BA400212B1DD17B681B685A687B681B6822F453
:101BB400E0625A607B681B681A687B681B6842F4A1
:101BC40000721A607B6800221A637B68202283F803
:101BD4003D207B68002283F83E207868FFF736FEBC
:101BE40000BF1037BD4680BD80B584B000AF7860BB
:101BF4007B6893F83D30DBB2222B40F0AC807B68ED
:101C04005B8D9BB2FB60FB68032B21D97B681B684F
:101C14001A697B685B6AD2B21A707B685B6A5A1C69
:101C24007B685A627B685B8D9BB2013B9AB27B688E
:101C34005A857B685B8D9BB2032B40F08C807B685C
:101C44001B685A687B681B6822F480625A6082E0D1
:101C54007B68DB6A022B75D0FB68012B02D0FB6822
:101C6400002B6FD1786801F027F80346002B42D18E
:101C74007B681B681A687B681B6822F480621A60A0
:101C84007B681B685A687B681B6822F4E0625A60B0
:101C94007B681B681A697B685B6AD2B21A707B68BE
:101CA4005B6A5A1C7B685A627B685B8D9BB2013B02
:101CB4009AB27B685A857B68202283F83D207B6832
:101CC40093F83E30DBB2402B0AD17B68002283F8C4
:101CD4003E207B6800221A637868FFF7C1FD3AE072
:101CE4007B68002283F83E207B6812221A6378689E
:101CF400FFF776FD2FE07B681B685A687B681B68DA
:101D040022F4E0625A607B681B681A697B685B6A2C
:101D1400D2B21A707B685B6A5A1C7B685A627B6811
:101D24005B8D9BB2013B9AB27B685A857B6820220B
:101D340083F83D207B68002283F83E207868FFF713
:101D440099FD08E07B681B685A687B681B6822F46D
:101D540080625A60FFE700BF1037BD4680BD80B582
:101D640084B000AF78607B68DB6AFB607B685B8D66
:101D74009BB2042B1BD17B681B685A687B681B6869
:101D840022F480625A607B681B681A697B685B6A0C
:101D9400D2B21A707B685B6A5A1C7B685A627B6891
:101DA4005B8D9BB2013B9AB27B685A85BDE07B6830
:101DB4005B8D9BB2032B29D17B681B685A687B68B7
:101DC4001B6822F480625A60FB68042B0AD0FB680B
:101DD400022B07D07B681B681A687B681B6822F497
:101DE40080621A607B681B681A697B685B6AD2B27E
:101DF4001A707B685B6A5A1C7B685A627B685B8DCD
:101E04009BB2013B9AB27B685A858EE07B685B8DFE
:101E14009BB2022B76D1FB68012B02D0FB68102BFE
:101E240008D17B681B681A687B681B6822F480628F
:101E34001A6019E0FB68042B02D0FB68022B08D15E
:101E44007B681B681A687B681B6842F480621A60AE
:101E54000AE0FB68102B07D07B681B681A687B6854
:101E64001B6842F400721A607B681B681A697B68FD
:101E74005B6AD2B21A707B685B6A5A1C7B685A62CE
:101E84007B685B8D9BB2013B9AB27B685A857B6809
:101E94001B681A697B685B6AD2B21A707B685B6ADA
:101EA4005A1C7B685A627B685B8D9BB2013B9AB279
:101EB4007B685A857B681B685A687B681B6822F4B8
:101EC40040725A607B68202283F83D207B6893F837
:101ED4003E30DBB2402B0AD17B68002283F83E20DF
:101EE4007B6800221A637868FFF7BAFC1DE07B6800
:101EF400002283F83E207B6812221A637868FFF779
:101F04006FFC12E07B681B681A697B685B6AD2B25B
:101F14001A707B685B6A5A1C7B685A627B685B8DAB
:101F24009BB2013B9AB27B685A8500BF1037BD460D
:101F340080BD80B483B000AF78607B6893F83E3096
:101F4400DBB2402B17D17B681B6D002B09D17B685A
:101F54005B6CDBB21A467B681B6802F0FE021A61F6
:101F640067E07B685B6CDBB243F00103DAB27B6849
:101F74001B681A615DE07B681B69B3F5804F33D140
:101F84007B6893F83D30DBB2212B09D17B685B6C15
:101F9400DBB21A467B681B6802F0FE021A6108E095
:101FA4007B685B6CDBB243F00103DAB27B681B68CD
:101FB4001A617B685B6B002B04D07B685B6BDB6B0B
:101FC400002B08D17B689B6B002B32D07B689B6B0A
:101FD400DB6B002B2DD07B681B685A687B681B6801
:101FE40042F400625A6024E07B681B6D002B0ED122
:101FF4007B685B6C9BB2DB11DBB203F00603DBB2E4
:1020040063F00F03DAB27B681B681A6111E07B6826
:102014001B6D012B0DD17B685B6C9BB2DB11DBB2BA
:1020240003F00603DBB263F00E03DAB27B681B68CD
:102034001A6100BF0C37BD465DF8047B704780B45D
:1020440083B000AF78607B685B6CDAB27B681B6836
:102054001A617B685B6B002B04D07B685B6BDB6B6A
:10206400002B08D17B689B6B002B0CD07B689B6B8F
:10207400DB6B002B07D07B681B685A687B681B6886
:1020840042F400625A6000BF0C37BD465DF8047B21
:10209400704780B491B000AF78607B6893F83E30AD
:1020A40087F83F307B68DB6ABB637B681B6B7B63B1
:1020B4007B6893F83D30DBB2222B40F069817B686A
:1020C4001B6D002B0FD197F83F30402B0BD1002311
:1020D4003B637B681B685B693B637B681B689B692C
:1020E4003B633B6B60E17B681B6D002B1DD17B6800
:1020F4001B69B3F5404F18D10023FB627B681B6852
:102104005B69FB627B681B689B69FB62FB6A7B689B
:102114001B681A687B681B6842F480721A607B68CB
:102124001B6D5A1C7B681A653EE17B685B8D9BB214
:10213400002B13D10023BB627B681B685B69BB6205
:102144007B681B689B69BB62BB6A7B681B681A68F7
:102154007B681B6842F400721A6015E17B685B8D32
:102164009BB2012B40F08A80BB6B13F5803F37D1C3
:102174007B681B681A687B681B6822F480621A609B
:102184007B681B685B6803F40063B3F5006F13D1CD
:102194007B681B681A687B681B6822F480621A607B
:1021A40000237B627B681B685B697B627B681B68BE
:1021B4009B697B627B6AE7E000233B627B681B6868
:1021C4005B693B627B681B689B693B623B6A7B681B
:1021D4001B681A687B681B6842F400721A60D3E0BB
:1021E400BB6B082B2ED0BB6B202B2BD07B6B122B05
:1021F40002D1BB6B012B25D1BB6B042B0ED0BB6B67
:10220400022B0BD0BB6B102B08D07B681B681A68A1
:102214007B681B6822F480621A6007E07B681B6895
:102224001A687B681B6842F480621A600023FB61B1
:102234007B681B685B69FB617B681B689B69FB614E
:10224400FB69A1E07B681B681A687B681B6822F441
:1022540080621A600023BB617B681B685B69BB6199
:102264007B681B689B69BB61BB697B681B681A68D8
:102274007B681B6842F400721A6085E07B685B8DA2
:102284009BB2022B4DD1BB6B042B16D0BB6B022B24
:1022940013D0BB6B102B10D07B681B681A687B684B
:1022A4001B6822F480621A607B681B681A687B686A
:1022B4001B6842F400621A6007E07B681B681A68B6
:1022C4007B681B6842F480621A607B681B685B68E9
:1022D40003F40063B3F5006F17D1BB6B13F5803FB4
:1022E4000BD0BB6B012B08D0BB6B082B05D0BB6B91
:1022F400102B02D0BB6B202B07D17B681B685A685C
:102304007B681B6842F480525A6000237B617B68BF
:102314001B685B697B617B681B689B697B617B696C
:1023240032E07B681B681A687B681B6842F4806231
:102334001A607B681B685B6803F40063B3F5006F85
:1023440017D1BB6B13F5803F0BD0BB6B012B08D0AF
:10235400BB6B082B05D0BB6B102B02D0BB6B202BA7
:1023640007D17B681B685A687B681B6842F48052FB
:102374005A6000233B617B681B685B693B617B6837
:102384001B689B693B613B697B6800221A650BE013
:102394000023FB607B681B685B69FB607B681B68D0
:1023A4009B69FB60FB68FFE700BF4437BD465DF8EF
:1023B400047B704780B584B000AF78607B6893F885
:1023C4003D30FB737B685B8D9BB2002B2BD07B680D
:1023D4005B6A1A787B681B681A617B685B6A5A1CA3
:1023E4007B685A627B685B8D9BB2013B9AB27B68C7
:1023F4005A857B685B8D9BB2002B14D1FB7B292B08
:1024040011D17B681B685A687B681B6822F4806260
:102414005A607B6821221A637B68282283F83D2056
:102424007868FFF7E7F900BF1037BD4680BD80B478
:1024340083B000AF78607B685B8D9BB2002B11D0BA
:102444007B685B6A1A787B681B681A617B685B6AC5
:102454005A1C7B685A627B685B8D9BB2013B9AB2C3
:102464007B685A8500BF0C37BD465DF8047B704716
:1024740080B584B000AF78607B6893F83D30FB731F
:102484007B685B8D9BB2002B2CD07B681B681A6920
:102494007B685B6AD2B21A707B685B6A5A1C7B6881
:1024A4005A627B685B8D9BB2013B9AB27B685A850A
:1024B4007B685B8D9BB2002B14D1FB7B2A2B11D143
:1024C4007B681B685A687B681B6822F480625A60C8
:1024D4007B6822221A637B68282283F83D2078686F
:1024E400FFF792F900BF1037BD4680BD80B483B0BA
:1024F40000AF78607B685B8D9BB2002B12D07B6849
:102504001B681A697B685B6AD2B21A707B685B6A63
:102514005A1C7B685A627B685B8D9BB2013B9AB202
:102524007B685A8500BF0C37BD465DF8047B704755
:1025340080B584B000AF786039600023FB737B689A
:1025440093F83D30DBB203F02803282B27D17B68B6
:102554001B685A687B681B6822F480625A603B6877
:102564009B0803F00103002B01D10123FB733B689B
:10257400DB0903F00103002B03D17B68DB68BB811B
:1025840002E07B689B69BB817B68002283F83C2066
:10259400BA89FB7B19467868FFF740F90EE00023FF
:1025A400BB607B681B685B69BB607B681B689B695D
:1025B400BB60BB687B68002283F83C2000BF1037F7
:1025C400BD4680BD80B584B000AF78607B6893F869
:1025D4003D30FB737B681B685A687B681B6822F478
:1025E400E0625A600023BB607B681B685B69BB6068
:1025F4007B681B681A687B681B6842F001021A60DA
:10260400BB687B681B681A687B681B6822F480625D
:102614001A607B681B685B6803F40063B3F5006FA2
:1026240072D1FB7B222B02D0FB7B2A2B35D17B681A
:102634009B6B1B685B689AB27B685A857B685B8D71
:102644009BB2002B05D07B681B6C43F004027B68B3
:102654001A647B681B685A687B681B6822F40062F2
:102664005A607B689B6B1846FEF78DFB0346012B73
:1026740049D07B689B6B694A1A657B689B6B1846DB
:10268400FEF75FFB0346002B3DD07B689B6B1B6D05
:102694007A68926B1046984735E07B685B6B1B68E1
:1026A4005B689AB27B685A857B685B8D9BB2002B12
:1026B40005D07B681B6C43F004027B681A647B685A
:1026C4001B685A687B681B6822F400625A607B6846
:1026D4005B6B1846FEF757FB0346012B14D07B684F
:1026E4005B6B4E4A1A657B685B6B1846FEF729FBE9
:1026F4000346002B08D07B685B6B1B6D7A68526BBA
:102704001046984700E000BF7B685B8D9BB2002BAE
:102714003ED07B681B685B6903F00403042B12D171
:102724007B681B681A697B685B6AD2B21A707B6823
:102734005B6A5A1C7B685A627B685B8D9BB2013B67
:102744009AB27B685A857B681B685B6903F0400317
:10275400402B12D17B681B681A697B685B6AD2B212
:102764001A707B685B6A5A1C7B685A627B685B8D53
:102774009BB2013B9AB27B685A857B685B8D9BB2A6
:10278400002B05D07B681B6C43F004027B681A6441
:102794007B681B6C002B03D0786800F0B3F839E039
:1027A400FB7B2A2B09D17B6800221A637B682822D1
:1027B40083F83D207868FFF727F87B6893F83D306D
:1027C400DBB2282B11D17B68154ADA627B680022C0
:1027D4001A637B68202283F83D207B68002283F8FB
:1027E4003E207868FFF728F814E07B681B6B222BE7
:1027F40002D0FB7B222B0DD17B6800221A637B68FD
:10280400202283F83D207B68002283F83E207868EC
:10281400FEF7FAFF00BF1037BD4680BD6D2B0008E0
:102824000000FFFF80B584B000AF78607B6893F848
:102834003D30FB737B68DB6ABB60BB68082B02D04E
:10284400BB68202B29D1FB7B282B26D17B682C4A03
:10285400DA627B681B685A687B681B6822F4E06252
:102864005A607B681B686FF480625A617B681B68DE
:102874001A687B681B6822F480621A607B680022F5
:102884001A637B68202283F83D207B68002283F84A
:102894003E207868FEF7D0FF2EE0FB7B212B26D16B
:1028A4007B68174ADA627B6821221A637B682022DC
:1028B40083F83D207B68002283F83E207B681B68F8
:1028C4005A687B681B6822F4E0625A607B681B6864
:1028D4006FF480625A617B681B681A687B681B68A6
:1028E40022F480621A607868FEF784FF04E07B6853
:1028F4001B686FF480625A6100BF1037BD4680BD0B
:102904000000FFFF80B584B000AF78607B6893F867
:102914003D30FB737B6893F83E30BB73BB7B102B5D
:1029240002D0BB7B402B0AD1FB7B222B07D17B68D7
:102934001B681A687B681B6822F400621A60FB7BC0
:1029440003F02803282B07D17B6800221A637B68D5
:10295400282283F83D2015E07B681B685B6803F43C
:102964000063B3F5006F0AD0FB7B602B07D07B6854
:10297400202283F83D207B68002283F83E207B6878
:1029840000221A637B681B685B6803F40063B3F579
:10299400006F62D17B681B685A687B681B6822F4ED
:1029A40000625A607B685B6B93F83530DBB2012BB5
:1029B40020D07B685B6B6A4A1A657B685B6B184640
:1029C400FEF7BFF90346002B00F089807B681B6883
:1029D4001A687B681B6822F001021A607B68202257
:1029E40083F83D207B685B6B1B6D7A68526B1046E5
:1029F400984774E07B689B6B594A1A657B689B6BAC
:102A04001846FEF79EF90346002B68D07B681B68C6
:102A14005B6903F04003402B0BD17B681B681A6988
:102A24007B685B6AD2B21A707B685B6A5A1C7B68EB
:102A34005A627B681B681A687B681B6822F0010273
:102A44001A607B68202283F83D207B689B6B1B6D9A
:102A54007A68926B1046984741E07B6893F83D3062
:102A6400DBB2602B25D17B68202283F83D207B6874
:102A740000221A647B681B685B6903F04003402BE7
:102A84000BD17B681B681A697B685B6AD2B21A70C7
:102A94007B685B6A5A1C7B685A627B681B681A688D
:102AA4007B681B6822F001021A607868FEF7ECFE6E
:102AB40015E07B681B685B6903F04003402B0BD176
:102AC4007B681B681A697B685B6AD2B21A707B6880
:102AD4005B6A5A1C7B685A627868FEF7CBFE7B6897
:102AE4001B6CBB60BB6803F00103002B0ED1BB68F9
:102AF40003F00203002B09D1BB6803F00403002B8D
:102B040004D1BB6803F00803002B07D07B681B6863
:102B14005A687B681B6822F4E0625A607B6893F809
:102B24003D30FB737B681B6C03F00403042B13D14F
:102B3400FB7B282B10D17B680A4ADA627B6800226F
:102B44001A637B68202283F83D207B68002283F887
:102B54003E207868FEF770FE00BF1037BD4680BD8A
:102B64006D2B00080000FFFF80B586B000AF7860D1
:102B74000023FB607B689B6B7B617B6993F83D3032
:102B8400FB744B4B1B68DB084A4AA2FB03231A0A5B
:102B940013469B001344DA00D31AFB60FB68002B36
:102BA40006D17B691B6C43F020027B691A640AE03E
:102BB400FB68013BFB607B691B681B6803F40073C3
:102BC400B3F5007FEAD07B695B6B002B03D07B6994
:102BD4005B6B0022DA637B699B6B002B03D07B6900
:102BE4009B6B0022DA637B691B681A687B691B682C
:102BF40022F480621A607B6900225A857B695B6BD0
:102C0400002B03D07B695B6B00221A657B699B6B8D
:102C1400002B03D07B699B6B00221A657B691B68C0
:102C24001A687B691B6822F001021A607B6993F8B9
:102C34003D30DBB2602B0ED17B69202283F83D202E
:102C44007B69002283F83E207B6900221A6478693C
:102C5400FEF71AFE27E0FB7C03F02803282B17D18C
:102C64007B691B681A687B691B6842F001021A6061
:102C74007B691B681A687B691B6842F480621A606E
:102C84007B6900221A637B69282283F83D2007E0D0
:102C94007B69202283F83D207B69002283F83E2053
:102CA4007869FEF7E7FD00BF1837BD4680BD00BF59
:102CB4000000002089B5F81480B485B000AF7860B6
:102CC4000023FB60134B1B68DB08134AA2FB03239E
:102CD4001A0A13469B001344FB60FB68013BFB602C
:102CE400FB68002B07D17B681B6C43F020027B68D8
:102CF4001A64012308E07B681B681B6803F40073F3
:102D0400B3F5007FE9D0002318461437BD465DF8BB
:102D1400047B70470000002089B5F81480B483B0A8
:102D240000AF78607B68DB6AB3F52A0F03D17B6858
:102D34000122DA6207E07B68DB6AB3F12A4F02D131
:102D44007B680822DA6200BF0C37BD465DF8047B5D
:102D54007047F0B58FB00AAF78607B68002B01D163
:102D640001230FE17B681B68BB607B6893F8BD346B
:102D7400DBB2002B06D17B68002283F8BC24786880
:102D840005F058FC7B68032283F8BD24BB68DB6B29
:102D940003F48073002B02D17B6800221A617B68E4
:102DA4001B68184601F0ABFF7B681B683B607E68BC
:102DB4006D4606F110040FCC0FC50FCC0FC594E877
:102DC400030085E80300331D0ECB386801F082FE52
:102DD4000346002B05D07B68022283F8BD2401231F
:102DE400D0E07B681B680021184601F099FF00239E
:102DF400FB734AE0FA7B79681346DB0013449B00BB
:102E04000B443D3301221A70FA7B79681346DB00C8
:102E140013449B000B443C33FA7B1A70FA7BFB7B14
:102E240098B279681346DB0013449B000B44443387
:102E340002461A80FA7B79681346DB0013449B0030
:102E44000B44403300221A70FA7B79681346DB0086
:102E540013449B000B44483300221A60FA7B7968C0
:102E64001346DB0013449B000B444C3300221A60CE
:102E7400FA7B79681346DB0013449B000B445433FC
:102E840000221A60FB7B0133FB73FA7B7B685B686F
:102E94009A42AFD30023FB7344E0FA7B796813466C
:102EA400DB0013449B000B4403F27D2300221A70C1
:102EB400FA7B79681346DB0013449B000B4403F54B
:102EC4001F73FA7B1A70FA7B79681346DB0013448C
:102ED4009B000B4403F5207300221A70FA7B796877
:102EE4001346DB0013449B000B4403F522730022BA
:102EF4001A60FA7B79681346DB0013449B000B4489
:102F040003F5237300221A60FA7B79681346DB0009
:102F140013449B000B4403F5257300221A60FB7BCA
:102F24000133FB73FA7B7B685B689A42B5D37B6899
:102F34001B683B607E686D4606F110040FCC0FC51C
:102F44000FCC0FC594E8030085E80300331D0ECBB6
:102F5400386801F031FF0346002B05D07B6802225C
:102F640083F8BD2401230DE07B68002283F8382018
:102F74007B68012283F8BD247B681B68184603F034
:102F840080F8002318461437BD46F0BD80B584B0E0
:102F940000AF78607B681B68FB607B6893F8BC3487
:102FA400012B01D1022320E07B68012283F8BC2499
:102FB4007B689B6A012B09D17B689B69012B05D037
:102FC400FB689B6B43F48032FB689A637B681B68E5
:102FD400184601F083FE7B681B68184603F030F83E
:102FE4007B68002283F8BC24002318461037BD46B2
:102FF40080BD90B58DB000AF78607B681B683B6284
:103004003B6AFB617B681B68184603F0EEF80346D5
:10301400002B40F08A847B681B68184603F052F842
:103024000346002B00F08084FB6903F500639B6872
:103034001B0AC3F30D027B68C3F8FC247B681B687E
:10304400184603F03FF8034603F00203022B07D1AE
:103054007B681B685A697B681B6802F002025A612C
:103064007B681B68184603F02DF8034603F0100331
:10307400102B61D17B681B689A697B681B6822F0FE
:1030840010029A613B6A1B6ABB61BB6903F00F02C1
:103094001346DB0013449B0003F51E737A68134444
:1030A40004337B61BB695B0C03F00F03022B24D157
:1030B400BA6947F6F0731340002B35D07B69196960
:1030C400BB691B099BB2C3F30A039BB21A46386A55
:1030D40002F064FE7B691A69BB691B09C3F30A0326
:1030E4001A447B691A617B691A6ABB691B09C3F3B9
:1030F4000A031A447B691A6216E0BB695B0C03F08D
:103104000F03062B10D17B6803F2C443082219462F
:10311400386A02F043FE7B691A6ABB691B09C3F370
:103124000A031A447B691A627B681B689A697B6884
:103134001B6842F010029A617B681B68184602F013
:10314400C1FF034603F40023B3F5002F40F0A7802A
:1031540000237B627B681B68184602F0C6FFB862D6
:1031640099E0BB6A03F00103002B00F08E807B68BA
:103174001B687A6AD2B21146184602F0EAFF386137
:103184003B6903F00103002B0CD07B6A5A01FB69F5
:10319400134403F530631A4601239360796A78680F
:1031A40000F0C2FE3B6903F00803002B0CD07B6ADD
:1031B4005A01FB69134403F530631A4608239360EC
:1031C400796A786800F098FF3B6903F01003002BDC
:1031D40008D07B6A5A01FB69134403F530631A462D
:1031E400102393603B6903F00203002B30D03B6A49
:1031F4005B6903F08003802B09D1FB6903F500634D
:103204005B68FA6902F5006243F4806353607A6A8A
:103214001346DB0013449B0003F51E737A681344C2
:1032240004337B617B69DB78012B08D17B69002245
:10323400DA707B6ADBB21946786805F0F7FA7B6AC4
:103244005A01FB69134403F530631A460223936061
:103254003B6903F02003002B08D07B6A5A01FB6909
:10326400134403F530631A46202393603B6903F447
:103274000053002B09D07B6A5A01FB69134403F500
:1032840030631A464FF4005393607B6A01337B62C8
:10329400BB6A5B08BB62BB6A002B7FF462AF7B68CE
:1032A4001B68184602F00EFF034603F48023B3F5AF
:1032B400802F40F0DB807B681B68184602F02FFFEC
:1032C400B86200237B62CDE0BB6A03F00103002BEC
:1032D40000F0C2807B681B687A6AD2B21146184635
:1032E40002F055FF38613B6903F00103002B57D00E
:1032F4007B6A03F00F03012202FA03F3FB60FB690C
:1033040003F500635A6BFB68DB43F96901F500615F
:1033140013404B637B6A5A01FB69134403F5106342
:103324001A46012393607B681B69012B32D17968AB
:103334007A6A1346DB0013449B000B444C33196830
:1033440078687A6A1346DB0013449B0003444833CD
:103354001B68194478687A6A1346DB0013449B009F
:1033640003444C3319607B6A002B13D179687A6A61
:103374001346DB0013449B000B4454331B68002B9F
:1033840008D17B6818687B6803F2C4431A4601219C
:1033940002F05CFF7B6ADBB21946786805F0CBF972
:1033A4003B6903F00803002B08D07B6A5A01FB69D0
:1033B400134403F510631A46082393603B6903F032
:1033C4001003002B08D07B6A5A01FB69134403F5F0
:1033D40010631A46102393603B6903F04003002BEB
:1033E40008D07B6A5A01FB69134403F510631A463B
:1033F400402393603B6903F00203002B23D0796AD6
:10340400386A01F03DFE7A6A1346DB0013449B00E0
:1034140038337A68134404337B617B69DB78012B8E
:1034240008D17B690022DA707B6ADBB219467868BE
:1034340005F00EFA7B6A5A01FB69134403F5106325
:103444001A46022393603B6903F08003002B03D0E8
:10345400796A786800F0DBFC7B6A01337B62BB6AC3
:103464005B08BB62BB6A002B7FF42EAF7B681B68D2
:10347400184602F027FE034603F00043B3F1004F61
:1034840022D1FB6903F500635B68FA6902F5006207
:1034940023F0010353607B6893F8F434012B08D1C3
:1034A4007B68002283F8F4240021786800F0C2FECF
:1034B40002E0786805F0ACF97B681B685A697B68A0
:1034C4001B6802F000425A617B681B68184602F0D0
:1034D400F9FD034603F40063B3F5006F12D1FB69F1
:1034E40003F500639B6803F00103012B02D17868A4
:1034F40005F068F97B681B685A697B681B6802F4ED
:1035040000625A617B681B68184602F0DBFD0346C3
:1035140003F48053B3F5805F40F0B780FB6903F593
:1035240000635B68FA6902F5006223F001035360EB
:103534007B681B681021184601F0A2FD0023FB6282
:1035440046E0FB6A5A01FB69134403F510631A460B
:103554004FF67F339360FB6A5A01FB69134403F50A
:1035640010631B68FA6A5101FA690A4402F5106291
:1035740023F400131360FB6A5A01FB69134403F537
:1035840030631A464FF67F339360FB6A5A01FB6936
:10359400134403F530631B68FA6A5101FA690A445B
:1035A40002F5306223F400131360FB6A5A01FB69CD
:1035B400134403F530631B68FA6A5101FA690A443B
:1035C40002F5306243F000631360FB6A0133FB626F
:1035D4007B685B68FA6A9A42B3D3FB6903F50063BC
:1035E400DB69FA6902F5006243F00113D3617B6879
:1035F4001B6B002B16D0FB6903F50063D3F88430F2
:10360400FA6902F5006243F00B03C2F88430FB69E7
:1036140003F500635B6CFA6902F5006243F00B0387
:10362400536415E0FB6903F500635B69FA6902F50D
:10363400006243F4005343F02B035361FB6903F529
:1036440000631B69FA6902F5006243F00B0313611E
:10365400FB6903F500631B68FA6902F5006223F451
:10366400FE6313607B6818687B681B69D9B27B684A
:1036740003F2C4431A4602F0E9FD7B681B685A69E9
:103684007B681B6802F480525A617B681B68184689
:1036940002F018FD034603F40053B3F5005F24D190
:1036A4007B681B68184602F0AEFD7B681B681846F1
:1036B40001F063FD03461A467B68DA607B681C6888
:1036C40001F0E8F901467B68DB68DBB21A46204664
:1036D40001F062FA786805F056F87B681B685A694D
:1036E4007B681B6802F400525A617B681B681846A9
:1036F40002F0E8FC034603F00803082B0AD17868BB
:1037040005F033F87B681B685A697B681B6802F014
:1037140008025A617B681B68184602F0D3FC034612
:1037240003F08003802B22D13B6A9B6923F0800243
:103734003B6A9A6101237B6214E079687A6A1346D2
:10374400DB0013449B000B4403F27F231B78012B03
:1037540005D17B6ADBB21946786800F027FB7B6AE7
:1037640001337B627B685B687A6A9A42E5D37B6843
:103774001B68184602F0A6FC034603F48013B3F555
:10378400801F3BD101237B622BE07B6A5A01FB69DA
:10379400134403F510631B68BB6179687A6A1346A6
:1037A400DB0013449B000B4440331B78012B15D1E1
:1037B400BB69002B12DA79687A6A1346DB0013447A
:1037C4009B000B443F3301221A707B6ADBB263F027
:1037D4007F03DBB21946786800F0E8FA7B6A0133AC
:1037E4007B627B685B687A6A9A42CED37B681B688B
:1037F4005A697B681B6802F480125A617B681B68F3
:10380400184602F05FFC034603F40013B3F5001FEF
:1038140055D101237B6245E07B6A5A01FB6913445D
:1038240003F530631B68BB6179687A6A1346DB0071
:1038340013449B000B4403F520731B78012B2ED1FA
:10384400BB69002B2BDABB6903F480327B68D3F8A5
:10385400FC3403F001039A4221D179687A6A134651
:10386400DB0013449B000B4403F27F2301221A70F4
:103874003B6A9B6943F080023B6A9A613B6A5B69DD
:1038840003F08003002B0AD1FB6903F500635B6836
:10389400FA6902F5006243F40073536007E07B6A3F
:1038A40001337B627B685B687A6A9A42B4D37B6833
:1038B4001B685A697B681B6802F400125A617B68B2
:1038C4001B68184602F0FEFB034603F08043B3F185
:1038D400804F0AD1786804F0CDFF7B681B685A6971
:1038E4007B681B6802F080425A617B681B6818463B
:1038F40002F0E8FB034603F00403042B15D17B68B4
:103904001B685B68BB61BB6903F00403002B02D036
:10391400786804F0BDFF7B681B6859687B681B6886
:10392400BA690A435A6000E000BF3437BD4690BD0F
:1039340080B582B000AF78600B46FB707B6893F86B
:10394400BC34012B01D1022313E07B68012283F8EC
:10395400BC247B68FA7883F838207B681B68FA7883
:103964001146184602F046FB7B68002283F8BC240B
:10397400002318460837BD4680BD80B584B000AF2B
:103984007860084611461A460346FB700B463B8096
:103994001346BB700023FB7297F90330002B0FDA38
:1039A400FB7803F00F021346DB0013449B0038330B
:1039B4007A6813440433FB60FB6801225A700FE0F9
:1039C400FB7803F00F021346DB0013449B0003F55E
:1039D4001E737A6813440433FB60FB6800225A7038
:1039E400FB7803F00F03DAB2FB681A703A88FB68BD
:1039F400DA60FB68BA781A71FB685B78002B04D034
:103A0400FB681B789AB2FB681A81BB78022B02D13F
:103A1400FB6800225A717B6893F8BC34012B01D1F6
:103A240002230EE07B68012283F8BC247B681B68B8
:103A3400F968184601F0C6FB7B68002283F8BC24B1
:103A4400FB7A18461037BD4680BD80B584B000AF00
:103A540078600B46FB7097F90330002B0FDAFB7884
:103A640003F00F021346DB0013449B0038337A68DB
:103A740013440433FB60FB6801225A700FE0FB78A7
:103A840003F00F021346DB0013449B0003F51E737F
:103A94007A6813440433FB60FB6800225A70FB7895
:103AA40003F00F03DAB2FB681A707B6893F8BC3436
:103AB400012B01D102230EE07B68012283F8BC2490
:103AC4007B681B68F968184601F004FC7B680022D7
:103AD40083F8BC24002318461037BD4680BD80B54A
:103AE40086B000AFF8607A603B600B46FB72FB7AED
:103AF40003F00F021346DB0013449B0003F51E730F
:103B0400FA68134404337B617B697A681A617B69C0
:103B14003A689A617B6900221A627B6900225A70B2
:103B2400FB7A03F00F03DAB27B691A70FB681B6936
:103B3400012B02D17A687B695A61FB7A03F00F0387
:103B4400002B09D1FB681868FB681B69DBB21A46B5
:103B5400796901F0E3FE08E0FB681868FB681B69FB
:103B6400DBB21A46796901F091FC00231846183734
:103B7400BD4680BD80B483B000AF78600B46FB7057
:103B8400FB7803F00F0279681346DB0013449B00B3
:103B94000B4403F527731B6818460C37BD465DF8C4
:103BA400047B704780B586B000AFF8607A603B60F4
:103BB4000B46FB72FB7A03F00F021346DB0013443F
:103BC4009B003833FA68134404337B617B697A6859
:103BD4001A617B693A689A617B6900221A627B697F
:103BE40001225A70FB7A03F00F03DAB27B691A7070
:103BF400FB681B69012B02D17A687B695A61FB7AE5
:103C040003F00F03002B09D1FB681868FB681B69DC
:103C1400DBB21A46796901F081FE08E0FB68186896
:103C2400FB681B69DBB21A46796901F02FFC00239B
:103C340018461837BD4680BD80B584B000AF7860A3
:103C44000B46FB70FB7803F00F027B685B689A42BB
:103C540001D9012350E097F90330002B0FDAFB78E8
:103C640003F00F021346DB0013449B0038337A68D9
:103C740013440433FB60FB6801225A700DE0FA78A8
:103C84001346DB0013449B0003F51E737A68134448
:103C94000433FB60FB6800225A70FB6801229A70AF
:103CA400FB7803F00F03DAB2FB681A707B6893F8B1
:103CB400BC34012B01D102231EE07B68012283F86E
:103CC400BC247B681B68F968184602F0BFF8FB78CF
:103CD40003F00F03002B0AD17B6818687B681B690B
:103CE400D9B27B6803F2C4431A4602F0AFFA7B6888
:103CF400002283F8BC24002318461037BD4680BD3B
:103D040080B584B000AF78600B46FB70FB7803F09D
:103D14000F027B685B689A4201D9012342E097F95C
:103D24000330002B0FDAFB7803F00F021346DB009D
:103D340013449B0038337A6813440433FB60FB68F4
:103D440001225A700FE0FB7803F00F021346DB00E8
:103D540013449B0003F51E737A6813440433FB6019
:103D6400FB6800225A70FB6800229A70FB7803F00B
:103D74000F03DAB2FB681A707B6893F8BC34012B2A
:103D840001D102230EE07B68012283F8BC247B6806
:103D94001B68F968184602F0C7F87B68002283F8AC
:103DA400BC24002318461037BD4680BD80B584B0BE
:103DB40000AF78600B46FB7097F90330002B0CDAE8
:103DC400FB7803F00F021346DB0013449B003833E7
:103DD4007A6813440433FB600CE0FB7803F00F02B1
:103DE4001346DB0013449B0003F51E737A681344E7
:103DF4000433FB607B681B68F968184601F0E6FE33
:103E04000346FB72FB7A18461037BD4680BD80B569
:103E14008AB002AF786039607B681B687B617B691C
:103E24003B613A681346DB0013449B0038337A68DD
:103E340013440433FB60FB681A6AFB689B699A426B
:103E440001D901236CE0FB689A69FB681B6AD31AE9
:103E5400FB61FB68DB68FA699A4202D9FB68DB689C
:103E6400FB61FB6903339B08BB612BE0FB689A6928
:103E7400FB681B6AD31AFB61FB68DB68FA699A4228
:103E840002D9FB68DB68FB61FB6903339B08BB61F8
:103E9400FB6819693B68DAB2FB6998B27B681B69F5
:103EA400DBB200930346786901F03AFFFB681A69B4
:103EB400FB691A44FB681A61FB681A6AFB691A44B5
:103EC400FB681A623B685A013B69134403F51063AB
:103ED4009B699BB2BA699A4209D8FB681A6AFB6863
:103EE4009B699A4203D2FB689B69002BBED1FB6895
:103EF4009A69FB681B6A9A4211D83B6803F00F0366
:103F0400012202FA03F3BB603B6903F500635A6BB9
:103F1400BB68DB43396901F5006113404B6300233F
:103F240018462037BD4680BD80B588B000AF7860A4
:103F340039607B681B68FB61FB69BB61FB693C33CF
:103F440004331B687B613B685A01BB69134403F566
:103F540030639B683B617B681B69012B7BD13B69A8
:103F640003F00803002B15D07B69614A934240F2A9
:103F7400B9803B6903F40043002B00F0B3803B6835
:103F84005A01BB69134403F530631A464FF40043E6
:103F94009360A7E03B6903F02003002B09D03B6842
:103FA4005A01BB69134403F530631A462023936016
:103FB40098E03B6903F02803002B40F093807B6971
:103FC4004B4A93420FD93B6903F40043002B0AD0B8
:103FD4003B685A01BB69134403F530631A464FF436
:103FE400004393607EE03A681346DB0013449B0071
:103FF40003F51E737A6813440433FB60FB68DA69C3
:104004003B685901BB690B4403F530631B69C3F377
:104014001203D21AFB681A623B68002B14D1FB68A6
:104024009B69002B09D17B6818687B6803F2C44341
:104034001A46012102F00AF906E0FB681A69FB68D6
:104044001B6A1A44FB681A613B68DBB2194678683C
:1040540004F056FB46E07B69264A934224D13B692F
:1040640003F40043002B0AD03B685A01BB69134494
:1040740003F530631A464FF40043936032E03B6922
:1040840003F02003002B08D03B685A01BB6913449A
:1040940003F530631A46202393603B68DBB219466C
:1040A400786804F02DFB1DE03B68002B14D179687F
:1040B4003A681346DB0013449B000B4403F5257355
:1040C4001B68002B08D17B6818687B6803F2C44323
:1040D4001A46002102F0BAF83B68DBB21946786848
:1040E40004F00EFB002318462037BD4680BD00BFF8
:1040F4000A30544F0A31544F80B586B000AF78600F
:1041040039607B681B687B617B693B617B693C33FD
:1041140004331B68FB603B685A013B69134403F595
:1041240030639B68BB60FB68154A93420ED9BB6839
:1041340003F40043002B09D03B685A013B69134444
:1041440003F530631A464FF400439360786804F033
:10415400C5FAFB680A4A93420CD97B681B69012B98
:1041640008D17B6818687B6803F2C4431A460121AE
:1041740002F06CF8002318461837BD4680BD00BF16
:104184000A30544F80B485B000AF78600B46FB70A2
:1041940013463B807B681B685B6ABB60FB78002B23
:1041A40007D13B8819047B681B68BA680A439A6282
:1041B40028E07B681B689B6A1B0CBA681344BB60CD
:1041C4000023FB730DE07B681A68FB7B40339B0084
:1041D40013445B681B0CBA681344BB60FB7B01335C
:1041E400FB73FA7BFB78013B9A42ECD33B881804BF
:1041F4007B681968FB78013BBA68024340339B0033
:104204000B445A60002318461437BD465DF8047BFE
:10421400704780B483B000AF78600B467B807B68C6
:104224001B687A885A62002318460C37BD465DF82D
:10423400047B704780B483B000AF78600B46FB709A
:1042440000BF0C37BD465DF8047B704780B586B06F
:1042540000AF78607B68002B01D1012367E27B68A3
:104264001B6803F00103002B75D0884B9B6803F097
:104274000C03042B0CD0854B9B6803F00C03082B18
:1042840012D1824B5B6803F48003B3F5800F0BD12A
:104294007E4B1B6803F40033002B5BD07B685B68A8
:1042A400002B57D1012342E27B685B68B3F5803F62
:1042B40006D1764B1B68754A43F4803313601DE0C6
:1042C4007B685B68B3F5A02F0CD1704B1B686F4AF9
:1042D40043F4802313606D4B1B686C4A43F48033B2
:1042E40013600BE0694B1B68684A23F48033136046
:1042F400664B1B68654A23F4802313607B685B6804
:10430400002B13D0FCF7DCFB386108E0FCF7D8FB8A
:1043140002463B69D31A642B01D9032307E25B4BA2
:104324001B6803F40033002BF0D014E0FCF7C8FB47
:10433400386108E0FCF7C4FB02463B69D31A642BDE
:1043440001D90323F3E1514B1B6803F40033002B21
:10435400F0D100E000BF7B681B6803F00203002B70
:1043640063D04A4B9B6803F00C03002B0BD0474BE4
:104374009B6803F00C03082B1CD1444B5B6803F4CB
:104384008003002B16D1414B1B6803F00203002B62
:1043940005D07B68DB68012B01D00123C7E13B4BCF
:1043A4001B6823F0F8027B681B69DB003749134361
:1043B4000B603AE07B68DB68002B20D0344B012291
:1043C4001A60FCF77DFB386108E0FCF779FB0246D4
:1043D4003B69D31A022B01D90323A8E12B4B1B6899
:1043E40003F00203002BF0D0284B1B6823F0F802E3
:1043F4007B681B69DB00254913430B6015E0244BE4
:1044040000221A60FCF75CFB386108E0FCF758FBFB
:1044140002463B69D31A022B01D9032387E11B4BC4
:104424001B6803F00203002BF0D17B681B6803F0C8
:104434000803002B36D07B685B69002B16D0154B24
:1044440001221A60FCF73CFB386108E0FCF738FBFA
:1044540002463B69D31A022B01D9032367E10B4BB4
:104464005B6F03F00203002BF0D01BE0094B00222A
:104474001A60FCF725FB38610EE0FCF721FB0246CD
:104484003B69D31A022B07D9032350E100380240B9
:1044940000004742800E4742884B5B6F03F00203E3
:1044A400002BEAD17B681B6803F00403002B00F0A7
:1044B40097800023FB75814B1B6C03F08053002B0A
:1044C4000FD10023BB607D4B1B6C7C4A43F08053AF
:1044D40013647A4B1B6C03F08053BB60BB680123ED
:1044E400FB75774B1B6803F48073002B18D1744B56
:1044F4001B68734A43F480731360FCF7E1FA386174
:1045040008E0FCF7DDFA02463B69D31A022B01D915
:1045140003230CE16A4B1B6803F48073002BF0D077
:104524007B689B68012B06D1644B1B6F634A43F085
:10453400010313671CE07B689B68052B0CD15F4B60
:104544001B6F5E4A43F0040313675C4B1B6F5B4AAB
:1045540043F0010313670BE0584B1B6F574A23F0DA
:1045640001031367554B1B6F544A23F0040313676D
:104574007B689B68002B15D0FCF7A2FA38610AE02F
:10458400FCF79EFA02463B69D31A41F28832934201
:1045940001D90323CBE0494B1B6F03F00203002B2B
:1045A400EED014E0FCF78CFA38610AE0FCF788FAE4
:1045B40002463B69D31A41F28832934201D903235C
:1045C400B5E03E4B1B6F03F00203002BEED1FB7DE5
:1045D400012B05D1394B1B6C384A23F080531364EB
:1045E4007B689B69002B00F0A180344B9B6803F02F
:1045F4000C03082B5CD07B689B69022B41D1314BA7
:1046040000221A60FCF75CFA386108E0FCF758FAFB
:1046140002463B69D31A022B01D9032387E0274BB7
:104624001B6803F00073002BF0D17B68DA697B68A8
:104634001B6A1A437B685B6A9B011A437B689B6A0B
:104644005B08013B1B041A437B68DB6A1B061B499E
:1046540013434B601B4B01221A60FCF731FA38619B
:1046640008E0FCF72DFA02463B69D31A022B01D964
:1046740003235CE0114B1B6803F00073002BF0D0A4
:1046840054E0104B00221A60FCF71AFA386108E073
:10469400FCF716FA02463B69D31A022B01D903230D
:1046A40045E0064B1B6803F00073002BF0D13DE09E
:1046B4007B689B69012B07D1012338E00038024055
:1046C40000700040600047421B4B5B68FB607B68E6
:1046D4009B69012B28D0FB6803F480027B68DB69AB
:1046E4009A4221D1FB6803F03F027B681B6A9A421D
:1046F4001AD1FA6847F6C07313407A68526A920175
:10470400934211D1FB6803F440327B689B6A5B08D7
:10471400013B1B049A4207D1FB6803F070627B687B
:10472400DB6A1B069A4201D0012300E000231846ED
:104734001837BD4680BD00BF0038024080B584B044
:1047440000AF786039607B68002B01D10123CCE095
:10475400684B1B6803F007033A689A420CD9654B0F
:104764003A68D2B21A70634B1B6803F007033A68C5
:104774009A4201D00123B8E07B681B6803F002036E
:10478400002B20D07B681B6803F00403002B05D0AA
:10479400594B9B68584A43F4E05393607B681B6809
:1047A40003F00803002B05D0534B9B68524A43F493
:1047B40060439360504B9B6823F0F0027B689B68D6
:1047C4004D4913438B607B681B6803F00103002B86
:1047D40044D07B685B68012B07D1474B1B6803F40B
:1047E4000033002B19D101237FE07B685B68022B27
:1047F40003D07B685B68032B07D13F4B1B6803F036
:104804000073002B09D101236FE03B4B1B6803F0BD
:104814000203002B01D1012367E0374B9B6823F08F
:1048240003027B685B68344913438B60FCF748F9E7
:10483400F8600AE0FCF744F90246FB68D31A41F237
:104844008832934201D903234FE02B4B9B6803F03A
:104854000C027B685B689B009A42EBD1254B1B687A
:1048640003F007033A689A420CD2224B3A68D2B258
:104874001A70204B1B6803F007033A689A4201D070
:10488400012332E07B681B6803F00403002B08D08B
:10489400194B9B6823F4E0527B68DB681649134389
:1048A4008B607B681B6803F00803002B09D0124B54
:1048B4009B6823F460427B681B69DB000E49134349
:1048C4008B6000F021F802460B4B9B681B0903F038
:1048D4000F030A49CB5C22FA03F3094A1360094B1C
:1048E4001B681846FCF7A8F8002318461037BD4685
:1048F40080BD00BF003C024000380240008D00082B
:1049040000000020040000202DE9B04F90B000AF5B
:1049140000237B630023FB6300233B630023BB630F
:10492400594B9B6803F00C03082B0DD0082B00F2A5
:10493400A180002B02D0042B03D09BE0534BBB631C
:104944009BE0534BBB6398E04F4B5B6803F03F0322
:104954007B634D4B5B6803F48003002B28D04A4BE8
:104964005B689B0900223B627A623B6AC3F30800DE
:104974000021474B03FB01F2002300FB03F3134424
:10498400434AA0FB0212FA620A46BA62FA6A134464
:10499400FB627B6B0022BB61FA61D7E90623D7E98E
:1049A4000A01FBF715FC02460B461346FB6353E072
:1049B400354B5B689B0900223B617A613B69C3F319
:1049C400080A4FF0000B52465B464FF000004FF0D0
:1049D4000001590141EAD261500102460B46B2EB93
:1049E4000A0863EB0B094FF000024FF000034FEA93
:1049F400891343EA98634FEA8812B2EB080463EB25
:104A040009054FF000024FF00003EB0043EA547332
:104A1400E20014461D4614EB0A033B6045EB0B030E
:104A24007B604FF000024FF00003D7E900452946B0
:104A34008B02214643EA915321468A0210461946C5
:104A44007B6B0022BB60FA60D7E90223FBF7C0FB53
:104A540002460B461346FB630B4B5B681B0C03F0CF
:104A6400030301335B003B63FA6B3B6BB2FBF3F371
:104A7400BB6302E0054BBB6300BFBB6B184640370A
:104A8400BD46BDE8B08F00BF003802400024F400EA
:104A940040787D0180B400AF034B1B681846BD46C7
:104AA4005DF8047B704700BF0000002080B500AFB4
:104AB400FFF7F0FF0246054B9B689B0A03F00703D0
:104AC4000349CB5C22FA03F3184680BD0038024048
:104AD400108D000884B080B584B000AF786007F111
:104AE4001C0080E80E003B6B012B22D17B689B6B82
:104AF40023F480327B689A637B68DB6823F4840345
:104B040023F040037A68D3607B68DB6823F44012A7
:104B14007B68DA60FB6C012B05D17B68DB6843F4AE
:104B240080127B68DA60786801F0EEFB0346FB7361
:104B34001AE07B68DB6843F040027B68DA607868DF
:104B440001F0E2FB0346FB733B6C002B06D17B6850
:104B54009B6B43F480327B689A6305E07B689B6BB4
:104B640023F480327B689A63BB6A012B0BD17B6888
:104B74009B6843F006027B689A607B689B6843F0FD
:104B840020027B689A60FB7B18461037BD46BDE85F
:104B9400804004B07047000080B487B000AFF86074
:104BA400B9601346FB71FB79022B65D1BB68414A9E
:104BB400934206D9BB68404A934202D20F237B61D9
:104BC40062E0BB683C4A934206D3BB683B4A9342CB
:104BD40002D20E237B6157E0BB68384A934206D366
:104BE400BB68374A934202D20D237B614CE0BB6819
:104BF400334A934206D3BB68324A934202D80C2309
:104C04007B6141E0BB682F4A934206D9BB682E4AB8
:104C1400934202D80B237B6136E0BB682A4A934255
:104C240006D9BB68294A934202D80A237B612BE048
:104C3400BB68264A934206D9BB68254A934202D2EE
:104C440009237B6120E0BB68214A934206D3BB68F9
:104C5400204A934202D808237B6115E0BB681D4AB1
:104C6400934206D9BB681C4A934202D207237B6154
:104C74000AE006237B6107E0FB79002B02D10923BC
:104C84007B6101E009237B61FB68DB6823F47052DC
:104C9400FB68DA60FB68DA687B699B0203F4705393
:104CA4001A43FB68DA60002318461C37BD465DF8DA
:104CB400047B7047BFACD800C0E1E4000024F400DA
:104CC400807306019F491A01FF2C31013FA44C0156
:104CD40000366E011FABA6010048E80180B483B022
:104CE40000AF78607B689B6843F001027B689A6040
:104CF400002318460C37BD465DF8047B704780B42A
:104D040083B000AF78607B689B6823F001027B6806
:104D14009A60002318460C37BD465DF8047B704743
:104D240080B584B000AF78600B46FB700023FB6055
:104D34007B68DB6823F0C0427B68DA60FB78012B78
:104D440015D17B68DB6843F000527B68DA60012090
:104D5400FBF7C2FEFB680133FB60786801F045FA9B
:104D64000346012B1ED0FB68312BF0D91AE0FB78E7
:104D7400002B15D17B68DB6843F080427B68DA60E6
:104D84000120FBF7A9FEFB680133FB60786801F0A2
:104D94002CFA0346002B05D0FB68312BF0D901E037
:104DA400012305E0FB68322B01D1012300E000233D
:104DB40018461037BD4680BD84B080B586B000AFBC
:104DC400786007F1240080E80E000023FB757B68FF
:104DD400FB6000233B6109E07A683B6940339B0038
:104DE400134400225A603B6901333B613B690E2B3B
:104DF400F2D9FB6C002B1CD1FB6803F500635B68E4
:104E0400FA6802F5006243F0020353607B689B6B0F
:104E140043F400127B689A637B689B6B23F4002243
:104E24007B689A637B689B6B23F480227B689A631C
:104E34000BE07B689B6B23F400127B689A637B68AE
:104E44009B6B43F400227B689A63FB6803F5606301
:104E54001A4600231360FB6803F500631946FB68D8
:104E640003F500631A460B681360BB6B012B0CD16E
:104E7400FB6A002B04D10021786800F065F908E092
:104E84000121786800F060F903E00321786800F0FC
:104E94005BF91021786800F0F3F80346002B01D089
:104EA4000123FB75786800F01FF90346002B01D03D
:104EB4000123FB75FB6803F500631A4600231361A5
:104EC400FB6803F500631A4600235361FB6803F58E
:104ED40000631A460023D36100233B6143E03B692E
:104EE4005A01FB68134403F510631B6803F0004385
:104EF400B3F1004F18D13B69002B0AD13B695A0129
:104F0400FB68134403F510631A464FF00063136003
:104F140013E03B695A01FB68134403F510631A4616
:104F24004FF09043136008E03B695A01FB68134457
:104F340003F510631A46002313603B695A01FB68AA
:104F4400134403F510631A46002313613B695A01A5
:104F5400FB68134403F510631A464FF67F339360DE
:104F64003B6901333B617B6A3A699A42B7D30023B8
:104F74003B6143E03B695A01FB68134403F530632A
:104F84001B6803F00043B3F1004F18D13B69002BB9
:104F94000AD13B695A01FB68134403F530631A468E
:104FA4004FF00063136013E03B695A01FB6813443C
:104FB40003F530631A464FF09043136008E03B69F1
:104FC4005A01FB68134403F530631A460023136047
:104FD4003B695A01FB68134403F530631A46002306
:104FE40013613B695A01FB68134403F530631A46A5
:104FF4004FF67F3393603B6901333B617B6A3A69C7
:105004009A42B7D3FB6803F500631B69FA6802F59B
:10501400006223F4807313617B6800229A617B68C9
:105024006FF080425A613B6B002B05D17B689B6912
:1050340043F010027B689A617B689A690F4B1343B3
:105044007A689361FB6B002B05D07B689B6943F006
:1050540008027B689A61FB6C012B07D17B689B6912
:1050640043F0804343F004037A689361FB7D184660
:105074001837BD46BDE8804004B0704700383C8016
:1050840080B485B000AF786039600023FB60FB68B2
:105094000133FB60FB68134A934201D903231BE0ED
:1050A4007B681B69002BF2DA0023FB603B689B01E1
:1050B40043F020027B681A61FB680133FB60FB68E4
:1050C400084A934201D9032306E07B681B6903F075
:1050D4002003202BF0D0002318461437BD465DF87A
:1050E400047B7047400D030080B485B000AF786046
:1050F4000023FB60FB680133FB60FB68114A9342A9
:1051040001D9032318E07B681B69002BF2DA002322
:10511400FB607B6810221A61FB680133FB60FB684B
:10512400084A934201D9032306E07B681B6903F014
:105134001003102BF0D0002318461437BD465DF839
:10514400047B7047400D030080B485B000AF7860E5
:105154000B46FB707B68FB60FB6803F500631A6811
:10516400FB78F96801F5006113430B6000231846CE
:105174001437BD465DF8047B704780B487B000AF38
:1051840078607B683B613B6903F500639B6803F0CF
:105194000603FB60FB68002B02D10023FB750AE0C9
:1051A400FB68022B02D0FB68062B02D10223FB759D
:1051B40001E00F23FB75FB7D18461C37BD465DF8E7
:1051C400047B704780B485B000AF786039607B6839
:1051D400FB603B681B78BB603B685B78012B3AD172
:1051E400FB6803F50063DA693B681B7803F00F037F
:1051F400012101FA03F39BB2F96801F5006113433D
:10520400CB61BB685A01FB68134403F510631B6848
:1052140003F40043002B55D1BB685A01FB681344C7
:1052240003F510631A683B68DB68C3F30A013B6843
:105234001B799B041943BB689B050B431343BA6852
:105244005101FA680A4402F5106243F0805343F4B2
:105254000043136036E0FB6803F50063DA693B68DA
:105264001B7803F00F03012101FA03F31B04F9680F
:1052740001F500611343CB61BB685A01FB68134419
:1052840003F530631B6803F40043002B1AD1BB6899
:105294005A01FB68134403F530631A683B68DB6802
:1052A400C3F30A013B681B799B040B431343BA689D
:1052B4005101FA680A4402F5306243F0805343F422
:1052C40000431360002318461437BD465DF8047B81
:1052D4007047000080B485B000AF786039607B68A7
:1052E400FB603B681B78BB603B685B78012B61D13A
:1052F400BB685A01FB68134403F510631B6803F091
:105304000043B3F1004F1FD1BB685A01FB6813443B
:1053140003F510631B68BA685101FA680A4402F580
:10532400106243F000631360BB685A01FB681344C6
:1053340003F510631B68BA685101FA680A4402F560
:10534400106243F080431360FB6803F50063DA6B7B
:105354003B681B7803F00F03012101FA03F39BB2AE
:10536400DB43F96801F500611340CB63FB6803F587
:105374000063DA693B681B7803F00F03012101FA2B
:1053840003F39BB2DB43F96801F500611340CB6181
:10539400BB685A01FB68134403F510631A68BB68C1
:1053A4005901FB680B4403F510631946354B134050
:1053B4000B6060E0BB685A01FB68134403F530637B
:1053C4001B6803F00043B3F1004F1FD1BB685A01BF
:1053D400FB68134403F530631B68BA685101FA682B
:1053E4000A4402F5306243F000631360BB685A015B
:1053F400FB68134403F530631B68BA685101FA680B
:105404000A4402F5306243F080431360FB6803F5FD
:105414000063DA6B3B681B7803F00F03012101FA88
:1054240003F31B04DB43F96801F500611340CB630C
:10543400FB6803F50063DA693B681B7803F00F032C
:10544400012101FA03F31B04DB43F96801F5006150
:105454001340CB61BB685A01FB68134403F5306306
:105464001A68BB685901FB680B4403F5306319469D
:10547400054B13400B60002318461437BD465DF8F6
:10548400047B7047007833EC0078F3EF80B58AB082
:1054940002AFF860B9601346FB71FB68FB61BB683F
:1054A4001B78BB61BB685B78012B40F05C81BB68F7
:1054B4009B69002B32D1BB695A01FB69134403F584
:1054C40010631B69BA695101FA690A4402F5106252
:1054D40023F0FF5323F4C0131361BB695A01FB6922
:1054E400134403F510631B69BA695101FA690A444C
:1054F40002F5106243F400231361BB695A01FB698E
:10550400134403F510631B69BA695101FA690A442B
:1055140002F51062DB0CDB04136174E0BB695A0111
:10552400FB69134403F510631B69BA695101FA69F5
:105534000A4402F51062DB0CDB041361BB695A01F7
:10554400FB69134403F510631B69BA695101FA69D5
:105554000A4402F5106223F0FF5323F4C0131361CD
:10556400BB695A01FB69134403F510631A69BB68EC
:105574009969BB68DB680B44591EBB68DB68B1FBE7
:10558400F3F3D9049D4B0B40B9694801F96901440F
:1055940001F5106113430B61BB695A01FB691344A4
:1055A40003F510631A69BB689B69C3F31203B969F5
:1055B4004801F969014401F5106113430B61BB68AB
:1055C4001B79012B1FD1BB695A01FB69134403F5F5
:1055D40010631B69BA695101FA690A4402F5106241
:1055E40023F0C0431361BB695A01FB69134403F5FB
:1055F40010631B69BA695101FA690A4402F5106221
:1056040043F000531361FB79012B4BD1BB685B69F9
:10561400002B09D0BB695A01FB69134403F51063DD
:105624001A46BB685B695361BB681B79012B28D19F
:10563400FB6903F500639B6803F48073002B10D1AE
:10564400BB695A01FB69134403F510631B68BA690B
:105654005101FA690A4402F5106243F000531360E1
:105664000FE0BB695A01FB69134403F510631B681F
:10567400BA695101FA690A4402F5106243F0805391
:105684001360BB695A01FB69134403F510631B687B
:10569400BA695101FA690A4402F5106243F00443FD
:1056A400136033E1BB695A01FB69134403F51063CA
:1056B4001B68BA695101FA690A4402F5106243F0A1
:1056C40004431360BB681B79012B15D0BB689B692D
:1056D400002B00F01B81FB6903F500635A6BBB6868
:1056E4001B7803F00F03012101FA03F3F96901F5B3
:1056F400006113434B6309E1FB6903F500639B6895
:1057040003F48073002B10D1BB695A01FB69134465
:1057140003F510631B68BA695101FA690A4402F57A
:10572400106243F0005313600FE0BB695A01FB6938
:10573400134403F510631B68BA695101FA690A44FA
:1057440002F5106243F080531360BB681969BB68AB
:105754001A78BB689B6998B2FB7900930346F86892
:1057640000F0DEFAD2E0BB695A01FB69134403F589
:1057740030631B69BA695101FA690A4402F530625F
:10578400DB0CDB041361BB695A01FB69134403F5A9
:1057940030631B69BA695101FA690A4402F530623F
:1057A40023F0FF5323F4C0131361BB689B69002BE0
:1057B40026D1BB695A01FB69134403F530631A69A6
:1057C400BB68DB68C3F31203B9694801F969014492
:1057D40001F5306113430B61BB695A01FB69134442
:1057E40003F530631B69BA695101FA690A4402F589
:1057F400306243F4002313613AE000BF0000F81F55
:10580400BB689A69BB68DB6813445A1EBB68DB68D3
:10581400B2FBF3F3FB82BB68DB68FA8A03FB02F298
:10582400BB68DA61BB695A01FB69134403F5306351
:105834001A69FB8AD904384B0B40B9694801F969E4
:10584400014401F5306113430B61BB695A01FB69E3
:10585400134403F530631A69BB68DB69C3F31203AD
:10586400B9694801F969014401F5306113430B61D9
:10587400FB79012B0DD1BB681B69002B09D0BB68D8
:105884001969BB695A01FB69134403F530630A467D
:105894005A61BB681B79012B28D1FB6903F50063AE
:1058A4009B6803F48073002B10D1BB695A01FB6918
:1058B400134403F530631B68BA695101FA690A4459
:1058C40002F5306243F0005313600FE0BB695A01E4
:1058D400FB69134403F530631B68BA695101FA6923
:1058E4000A4402F5306243F080531360BB695A01E5
:1058F400FB69134403F530631B68BA695101FA6903
:105904000A4402F5306243F004431360002318464E
:105914002037BD4680BD00BF0000F81F80B487B0AB
:1059240000AFF860B9601346FB71FB687B61BB682C
:105934001B783B61BB685B78012B40F0CE80BB6871
:105944009B69002B32D13B695A017B69134403F5EF
:1059540010631B693A6951017A690A4402F51062BD
:1059640023F0FF5323F4C01313613B695A017B698D
:10597400134403F510631B693A6951017A690A44B7
:1059840002F5106243F4002313613B695A017B69F9
:10599400134403F510631B693A6951017A690A4497
:1059A40002F51062DB0CDB0413614EE03B695A0123
:1059B4007B69134403F510631B693A6951017A69E1
:1059C4000A4402F51062DB0CDB0413613B695A01E3
:1059D4007B69134403F510631B693A6951017A69C1
:1059E4000A4402F5106223F0FF5323F4C013136139
:1059F400BB689A69BB68DB689A4203D9BB68DA68FA
:105A0400BB689A613B695A017B69134403F51063CF
:105A14001B693A6951017A690A4402F5106243F438
:105A2400002313613B695A017B69134403F5106336
:105A34001A69BB689B69C3F3120339694801796920
:105A4400014401F5106113430B61FB79012B1ED155
:105A5400BB685B69002B09D03B695A017B6913441D
:105A640003F510631A46BB685B6953613B695A01CD
:105A74007B69134403F510631B683A6951017A6921
:105A84000A4402F5106243F00443136097E03B6953
:105A94005A017B69134403F510631B683A69510189
:105AA4007A690A4402F5106243F004431360BB6848
:105AB4009B69002B00F083807B6903F500635A6BBC
:105AC400BB681B7803F00F03012101FA03F3796922
